:1016C600253032643A253032643A25303264202D92
:1016D6002D3E2025642E25303264430D0A00434DED
:1016E600443A20524543454956454400434D443A01
:1016F6002054696D65722053746F707065640D0AAD
:1017060000434D443A2054696D65722053746172EA
:061716007465640D0A0079
:1017550002290000022B000102270001012D0001D2
:061765002600C10AC109C3
:1012950012193612190512198A7FE87E031219638D
:1012A5001219CE8F53E553B4010CE52E70047F015E
:1012B50080027F008F2EE5536402704AF52EF529D2
:1012C500F52AF52B752C01F527752801F52DFFFE5F
:1012D5007DC87C42AB34AA33A932A831120800126A
:1012E50009E48E2F8F307C007D64120D57AC06AD5E
:1012F50007E4FF121858AE2FAF307C007D64120D45
:10130500577F01121858E553B4030C0526E526D37B
:1013150094024003E4F526E5536404705FE52E70FE
:101325005BE526700A0528E528701B05278017E56B
:1013350026B4010A052CE52C700C052B8008052A1E
:10134500E52A70020529C3E528943CE527648094C5
:10135500804005E4F527F528C3E52C943CE52B648E
:101365008094804005E4F52BF52CC3E52A9463E5CC
:1013750029648094804005E4F529F52AAE29AF2A31
:101385007C007D0A120D57AC06AD077F011219AD21
:10139500AE29AF2A7C007D0A120D577F021219ADC6
:1013A5007D0B7C007F031219ADAE2BAF2C7C007D2D
:1013B5000A120D57AC06AD077F041219ADAE2BAF5F
:1013C5002C7C007D0A120D577F051219AD7D0B7C13
:1013D500007F061219ADAE27AF287C007D0A120DDD
:1013E50057AC06AD077F071219ADAE27AF287C00B5
:1013F5007D0A120D577F081219AD200A030212A5A6
:10140500C2AF12198A1217B88F348E338D328C31D0
:10141500D2AFE4FFFE7DC87C42AB34AA33A932A823
:10142500311208001209E48E2F8F30C20A755BFF56
:10143500755C16755DC685295E852A5F852B608579
:101445002C618527628528637C007D64120D578E8B
:10145500648F65AE2FAF307C007D64120D578C66AE
:101465008D677B007A007935120E82D2097B007A6E
:0B147500007935121833C2090212A5DD
:10166E00E52E64017051E528152870021527C3E593
:10167E002764809480504075270075283BE52C1513
:10168E002C7002152BC3E52B648094805029752B8A
:10169E0000752C3BE52A152A70021529C3E529642D
:1016AE008094805012E4F527F528F52BF52CF529BA
:0816BE00F52AF52E752D01221D
:03000B0002150CCF
:10150C00C0E0C0F0C083C082C0D075D000C000C0A5
:0D151C0001C002C003C004C005C006C00726
:10152900758A66758CFC0523E52370020522C39430
:1015390014E5229400400C7522007523002009034C
:1015490012171C1218B70525E52570020524C39446
:10155900E8E5249403400B75240075250012166EE6
:09156900D20AE52D60031219DA23
:10157200D007D006D005D004D003D002D001D000CD
:0B158200D0D0D082D083D0F0D0E03277
:0300230002158D36
:10158D00C0E0C0F0C083C082C0D075D000C000C024
:0D159D0001C002C003C004C005C006C007A5
:1015AA00309840859954C2987BFF7A1679E41218CC
:1015BA0033AF541219BFE55464536005E554B4536C
:1015CA000B752E007BFF7A1679F28014E55464526B
:1015DA006005E554B4520C752E017BFF7A17790722
:0315EA00121833A1
:1015ED00D007D006D005D004D003D002D001D00052
:0B15FD00D0D0D082D083D0F0D0E032FC
:10196300EF1FAC0670011E4C600A7D027CEFDCFEAB
:04197300DDFC80EC2B
:01197700224D
:10176B000909000A0A0A0A0A0A0A0A0C123F065B4E
:0C177B004F666D7D077F6F004001080184
:0919AD00AE0574092FF8A606220C
:10160800E4F580EF14B40800505490162075F003E8
:10161800A4C58325F0C5837302163802163C02164A
:101628004002164402164802165002165802166066
:10163800D2A4800ED2A48012D2A48016D2A4801A7A
:10164800C2A4D2A3D2A28016C2A4D2A3C2A2800EE0
:10165800C2A4C2A3D2A28006C2A4C2A3C2A2741208
:061668002DF8E6F58022DA
:1018B70074092508F8E6FD7C00AF0812160805082C
:0A18C700E508C39409400375080109
:0118D10022F4
:0519CE00E4AF76F576A0
:0119D30022F1
:10194D00E4FF20B1010F20B0027F0220B2027F031D
:05195D0020B3027F042D
:011962002262
:10171C0085747512194D8F74E575B40107E57470F5
:10172C0003757601E575B40207E5747003757602EE
:10173C00E575B40307E5747003757603E575B404B9
:08174C0007E5747003757604D3
:011754002272
:101936005389F0438901758A66758CFCC28DD28CF9
:07194600D2A9D2AFC2B92201
:101858008F588C598D5A1219B67FA01217E3121996
:1018680097AF581217E3121997AF5A1217E31219C4
:04187800970219C7F3
:021788008F1EB2
:10178A001219B67FA01217E3121997AF1E1217E3A8
:10179A001219971219B67FA11217E3121997121884
:0D17AA007C8F1F7F011219A31219C7AF1FFA
:0117B700220F
:0919B600D2A0D2A1C2A0C2A1225C
:0719C700C2A0D2A1D2A022B0
:0217E300AD0750
:1017E500E4FB74807E00A803088006CEA2E713CE32
:1017F50013D8F8FFEDF582EF558224FF92A0D2A110
:06180500C2A10BBB08DCD0
:01180B0022BA
:10187C00E4FFD2A0FED2A130A00D7480A80608808F
:0D188C0002C313D8FC4207C2A10EBE08E83B
:01189900222C
:0A19A300EF24FF92A0D2A1C2A122FE
:0B199700D2A0D2A1A2A0E433FFC2A1A5
:0119A2002222
:0519D400007FF7DFFEBB
:0119D90022EB
:0319DA00B2A52291
:0D198A001218D27FCC1218EC7F440218EC2A
:1017B8001218D27FCC1218EC7FBE1218EC12189AAD
:1017C8008F5812189AEFFEE558FFFDAC06EC120987
:0B17D800ABE4FBFA79807841020909BC
:1018D200D2B7C2B77FF7DFFED2B77F20DFFEA2B753
:0918E200E433FE7FF7DFFEAF06E0
:0118EB0022DA
:10197800C2B77E04DEFEEF24FF92B77E18DEFED2E9
:01198800B7A7
:01198900223B
:10191E00C2B77F02DFFED2B77F02DFFEA2B7E4338B
:07192E00FE7F18DFFEAF068B
:01193500228F
:0218EC00AD0746
:1018EE00E4FC7401A804088002C333D8FC5DFF1227
:0618FE0019780CBC08EC97
:0119040022C0
:10189A00E4FDFC12191EEF600D7401A80408800211
:0C18AA00C333D8FC42050CBC08E9AF05B4
:0118B600220F
:1019050075985053877F53890F438920758BFD75D3
:091915008DFDC2ABD28ED2AC22D2
:0819BF008F993099FDC29922B5
:101833008B588A59895AAB58AA59A95A120CFF6076
:1018430013055AE55A7002055914F9120CFFFF12D9
:0518530019BF80E22234
:10080000EC4D6011E8497017ED33EC3304600DE4F2
:10081000FCFFFEFD22E933E8330470F8020A5012AF
:100820000A1B58046009E4CC2481500628500902B0
:100830000A5A284003020A57C0E0EB4A7044B980C4
:1008400006D0E0FB020A46EF4E701CBD8008EBFFAD
:10085000EAFEE9FD80EBE98DF0A4FEE5F00208E98F
:10086000E9CDF9EAFEEBFFEF89F0A4FCE5F0CE89D3
:10087000F0A42EFFE435F0CD89F0A42DFEE435F090
:100880008067EF4E7005BD80D780C3EF8BF0A4ACBE
:10089000F0EE8BF0A42CFCE435F0F8EF8AF0A42CF9
:1008A000E5F038FCE433CB8DF0A42CFCE5F03BF80C
:1008B000EE8AF0A42CFCE5F038F8E433CF89F0A4FC
:1008C0002CFCE5F038CF3400CE89F0A42FFFE5F002
:1008D0003EFEE433C98DF0A42EFEE5F039CD8AF05A
:1008E000A42FFFE5F03EFEE43DFD33D0E0FB5007D2
:1008F0000BBB000F020A5AEC2CFCEF33FFEE33FE69
:06090000ED33FD020A3296
:10090600020A5AEC5D046005E859047003020A50B5
:10091600120A1B580460F6EC4860F2EC7004FDFE07
:10092600FF22C860DB2481C85009C39860025006C4
:10093600020A579850CAF582E9294B4A7005AB82DC
:10094600020A4675F0007C1A7880C3EF9BEE9AED9A
:1009560099400DC3EF9BFFEE9AFEED99FDE842F03C
:10096600DC23ACF0D0E0FFD0E0FED0E0FDAB82208F
:10097600E7101BEB60BAEC2CFCEF33FFEE33FEED19
:1009860033FD020A32E803F830E705C0F075F000DF
:10099600EF2FFFEE33FEED33FD40B830E7C280AAFD
:1009A60075F020800E75F010800575F0087D007ECC
:1009B600007F003392D530D503120D8DEC334010F5
:1009C600EF33FFEE33FEED33FDEC33FCD5F0ED22D5
:0E09D600E5F0247EA2D513CC92E7CDCEFF2211
:1009E400EDD2E7CD33EC3392D524814006E4FFFE0B
:1009F400FDFC22FCE4CFCECDCC24E0501174FF806A
:100A0400EDC3CC13CCCD13CDCE13CECF13CF047006
:070A1400F030D5DE020D8D6C
:100E2600E56F245BF8E6056F227858300702785B99
:100E3600E475F001120D9B020CFF2000EB7F2ED211
:100E4600008018EF540F2490D43440D4FF30040BA4
:100E5600EF24BFB41A0050032461FFE57060021549
:100E6600700573E5737002057230070D7858E475E6
:100E7600F001120D9BEF020D4502180C7403D20708
:100E86008003E4C207F56F8B588A59895AE4F570D6
:100E9600F572F573E57060077F20120E6180F575B7
:100EA60071FFC201C200C202C203C205C206C20865
:100EB600120E2FFF700D3007057F00120E72AF73F2
:100EC600AE7222B4255FC2D5C204120E2FFF24D003
:100ED600B40A00501A75F00A787030D50508B6FFC6
:100EE6000106C6A426F620D5047002D20380D924B2
:100EF600CFB41A00EF5004C2E5D20402115FD2014A
:100F060080C6D20080C0D20280BCD2D580BAD205BB
:100F160080B47F20120E612002077401B570004074
:100F2600F1120E26FF120E61020E9AD208D2068028
:100F360095120E26FB120E26FA120E26F94A4B7051
:100F46000679567A127BFF20022EE570602A7E0013
:100F56008E82758300120D1860060EEE657170F0B4
:100F6600C2D5EBC0E0EAC0E0E9C0E0EE1211BFD0A6
:100F7600E0F9D0E0FAD0E0FB120CFFFF60AAEBC06C
:100F8600E0EAC0E0E9C0E0120E61D0E02401F9D049
:100F9600E03400FAD0E0FBE5710460DCD571D9805D
:100FA60087D20280A21211A260F7E57170010412C5
:100FB6000A65A971600DE571600914F5711212498F
:100FC600EF60F3EA30E702F404C3995077EAF425B8
:100FD600710430E701E404F571800D1211A260C1BD
:100FE600EA05712571120A65EA786EF630E701E4C2
:100FF600257104D57104200501141211BFE4C0E067
:10100600121249786EE6601320E70714F6120E49AD
:10101600802204F6D0E014C0E07F00120E49E5718C
:101026006007120E401571800B300503120E40D07A
:10103600E0020E9AD0E00480C51211A260A0E5710C
:1010460004120A65786EEAF6E5712005026001046D
:0510560024041211BF8B
:10105B0074FF04C0E0121249120E49E5712005021B
:10106B006003120E40D0E0B571E87F45120E537845
:10107B006EE67F2B30E7047F2DF404C0E0120E6187
:10108B00D0E075F00A84C0F0120E4AD0E0120E4A7E
:10109B00020E9A791080027908C206C2088008D223
:1010AB00D5790A8004790AC2D5E571047002F5710D
:1010BB00E4FAFDFEFF120E26FC7B08200113120E34
:1010CB0026FD7B1030000A120E26FE120E26FF7B29
:1010DB0020EC3382D592D55013C3E43000069FFF2A
:1010EB00E49EFEE42001039DFDE49CFCE4CBF8C2EE
:1010FB0001EC700CCFCECDCCE824F8F870F3801750
:10110B00C3EF33FFEE33FEED33FDEC33FCEB33FB80
:10111B00994002FB0FD8E9EB300105F8D0E0C44849
:10112B00B201C0E00AEC4D4E4F78207B0070C2EA52
:10113B00B5710040BCC0E01211C1D0F0D0E020016D
:10114B0004C4C0E0C4B201C0F0120E4AD0F0D5F016
:10115B00EB020E9A120DAB0F3753109E580F084C23
:10116B000F044210A24F10AA4410AA490F1D43109E
:10117B00B0550FE146103F450FAB471276500F0CA1
:10118B002D0F102E0F332B0F14230F3120125F2A2C
:10119B000ECC4800000F2BE571B4FF0375710612DE
:1011AB000E26FC120E26FD120E26FE120E26FF78C0
:1011BB0067020A94790AA2D5200314300509B910E5
:1011CB00020404B9080104A2D52006025001042030
:1011DB0002689202B570005034C0E07F20300319D2
:1011EB007F30A20272067205500F121218C202C291
:1011FB0006C205C2087F30800F300503E9C0E0123C
:10120B000E61300503D0E0F9D0E0B570CC30051796
:10121B007F30B9100C120E617F583004077F788035
:10122B0003B90803120E613002057F2D020E617F98
:10123B00202008F87F2B2006F322920280CF7F001C
:10124B00B4070050052467F8E6FF22286E756C6C16
:10125B002900D201120E263001F8C201787030D568
:10126B000108F6020ECC2D50434958120E262403CA
:10127B00B405004001E490127193120E52743A12AD
:0A128B000E52D20375700402109E8B
:100A1B00E9D2E7C933E833F892D5EDD2E7CD33EC21
:070A2B0033FC5002B2D5229A
:100A3200EC30E7100FBF000C0EBE00080DBD000425
:100A42000BEB6014A2D5EB13FCED92E7FD2274FFD1
:100A5200FCFDFEFF22E480F8A2D574FF13FC7D802A
:030A6200E480EF3E
:100A6500F920E72824F950037907E4F42402FB1858
:100A7500DBFDE624FB5014E9600DE4F618E604F608
:0F0A8500B40A08E4F6D9F57401F60A22C2D522A4
:100A9400ED33EC3392D5FA602AB4FF33EDC2E77B31
:100AA400FF60067A0A79B9E4227A0A79C220D50469
:100AB4007A0A79BD224E614E002B494E46002D49DB
:100AC4004E4600E47A08F608DAFC7B00740722E854
:100AD400C0E0ECC0E0EDC0E0EEC0E0EFC0E0EA75DD
:100AE400F010A4CAABF075F04DA42BFBE435F0FC78
:100AF400EA2410FAEB34C5FBEC34D9FCEDC2E7FF71
:100B040075F056A4F42411C5F0F434C58FF0A42A6A
:100B1400E5F03BE43CF620E714120CBFD0E0FFD034
:100B2400E0FED0E0FDD0E0FC1209098014F40412C8
:100B34000CBFD0E0FFD0E0FED0E0FDD0E0FC120816
:100B440000D0E0F8E6FAEDD2E7CD33EC332482FBB3
:100B5400E4C3CF33CFCE33CECD33CD33DBF37B07FA
:100B640075F00A846004F6081B0AE5F0F6088FF0B5
:100B7400740AA4FFACF08EF0740AA42CFEACF050FE
:100B8400010C8DF0740AA42CFDE435F0F608DBDECC
:030B9400740722C1
:100B9700020A50E86480F8E933E83360110460F032
:100BA700ED33EC337009E8FCE9FDEAFEEBFF2204C4
:100BB70060DED3EB9FEA9EE99DE8C2E78CF0C2F7BF
:100BC70095F0400CE8CCF8E9CDF9EACEFAEBCFFB8B
:100BD700120A1B85D0F05804700320D5B3E80470BF
:100BE700075002B2D5020A5A92D5EC0460F7E4CC5A
:100BF700C0E0C398F8603B94186008400DD0E0FB54
:100C0700020A32E4FBFAC9FC8028E830E406E4C9AA
:100C1700FBE4CAFCE830E305E4C9CACBFCE85407A7
:100C27006010F8C3E913F9EA13FAEB13FBEC13FCB2
:100C3700D8F130F52FC3E49CFCEF9BFFEE9AFEED55
:100C470099FDD0E0FBEF4E4D4C701222DB03020AF8
:100C570057EC2CFCEF33FFEE33FEED33FDED30E7C1
:100C6700EB020A32EF2BFFEE3AFEED39FDD0E0FB47
:100C770050130BBB0003020A5AED13FDEE13FEEFF0
:080C870013FFEC13FC020A321A
:100C8F003F8000004120000042C80000447A00006D
:100C9F00461C400047C35000497424004B189680EF
:100CAF004CBEBC205A0E1BCA6753C21C749DC5AEE6
:100CBF00FB60065407601C2323120CEDEB543860C5
:100CCF0009120CD9120CE8120800ECF8EDF9EEFA43
:100CDF00EFCB22EB120CE880F1543803241C900C5C
:100CEF008FFE93FC0EEE93FD0EEE930ECE93FF222E
:0300000002148067
:0C148000787FE4F6D8FD7581760214C771
:100CFF00BB010689828A83E0225002E722BBFE02F3
:090D0F00E32289828A83E4932225
:100D1800BB010CE58229F582E5833AF583E0225090
:100D280006E92582F8E622BBFE06E92582F8E222DA
:0D0D3800E58229F582E5833AF583E49322F4
:100D4500BB010689828A83F0225002F722BBFE018D
:020D5500F32287
:100D5700C2D5EC30E709B2D5E4C39DFDE49CFCEEB7
:100D670030E715B2D5E4C39FFFE49EFE120DD1C351
:100D7700E49DFDE49CFC8003120DD130D507C3E44C
:060D87009FFFE49EFE2226
:0E0D8D00C3E49FFFE49EFEE49DFDE49CFC2277
:100D9B00FAE6FB0808E6F925F0F618E6CA3AF62259
:100DAB00D083D082F8E4937012740193700DA3A3D7
:100DBB0093F8740193F5828883E4737402936860EB
:060DCB00EFA3A3A380DFEB
:10180C00EFB40A07740D121817740A309811A899BE
:10181C00B8130CC2983098FDA899C298B811F6303C
:07182C0099FDC299F5992214
:10148C00021295E493A3F8E493A34003F68001F2CF
:10149C0008DFF48029E493A3F85407240CC8C33361
:1014AC00C4540F4420C8834004F456800146F6DF30
:1014BC00E4800B0102040810204080901755E47E54
:1014CC00019360BCA3FF543F30E509541FFEE49325
:1014DC00A360010ECF54C025E060A840B8E493A3EC
:1014EC00FAE493A3F8E493A3C8C582C8CAC583CA17
:1014FC00F0A3C8C582C8CAC583CADFE9DEE780BECF
:011787000061
:100DD100BC000BBE0029EF8DF084FFADF022E4CC06
:100DE100F875F008EF2FFFEE33FEEC33FCEE9DECCF
:100DF100984005FCEE9DFE0FD5F0E9E4CEFD22ED15
:100E0100F8F5F0EE8420D21CFEADF075F008EF2F5E
:100E1100FFED33FD4007985006D5F0F222C398FD4F
:050E21000FD5F0EA22EC
:00000001FF
