:10179500253032643A253032643A25303264202DC2
:0E17A5002D3E2025642E25303264430D0A00AF
:1016700002290000022B000102270001012D0001B8
:041680002600C10976
:1012950012185412186B1218BF7FE87E03121898A3
:1012A500E4FFFE7DC87C42AB34AA33A932A83112D3
:1012B50008001209E48E2F8F301219098F53E55358
:1012C500B4010CE52E70047F0180027F008F2EE5AE
:1012D5005364027035F52EF529F52AF52B752C0189
:1012E500F527752801F52DAE2FAF30FC7D64120D65
:1012F50057AC06AD07E4FF121771AE2FAF307C0077
:101305007D64120D577F01121771E553B4030C0567
:1013150026E526D394024003E4F526E553640470DC
:101325005FE52E705BE526700A0528E528701B052C
:10133500278017E526B4010A052CE52C700C052B32
:101345008008052AE52A70020529C3E528943CE5AD
:1013550027648094804005E4F527F528C3E52C949F
:101365003CE52B648094804005E4F52BF52CC3E522
:101375002A9463E529648094804005E4F529F52ADB
:10138500AE29AF2A7C007D0A120D57AC06AD077F4A
:10139500011218E2AE29AF2A7C007D0A120D577F93
:1013A500021218E27D0B7C007F031218E2AE2BAF10
:1013B5002C7C007D0A120D57AC06AD077F04121870
:1013C500E2AE2BAF2C7C007D0A120D577F0512185B
:1013D500E27D0B7C007F061218E2AE27AF287C0069
:1013E5007D0A120D57AC06AD077F071218E2AE272E
:1013F500AF287C007D0A120D577F081218E22009DC
:10140500030212A5C2AF1218BF1216D18F348E3344
:101415008D328C31D2AFC2097557FF755817755982
:101425009585295A852A5B852B5C852C5D85275EEC
:1014350085285FAE2FAF307C007D64120D578E601E
:101445008F61AE2FAF307C007D64120D578C628D9D
:10145500637B007A007935120E82C2A97B007A007F
:0A146500793512174CD2A90212A526
:1015DF00E52E64017051E528152870021527C3E523
:1015EF002764809480504075270075283BE52C15A3
:1015FF002C7002152BC3E52B648094805029752B1A
:10160F0000752C3BE52A152A70021529C3E52964BC
:10161F008094805012E4F527F528F52BF52CF52949
:08162F00F52AF52E752D0122AC
:03000B000214FBE1
:1014FB00C0E0C0F0C083C082C0D075D000C000C0B7
:0D150B0001C002C003C004C005C006C00737
:10151800758A66758CFC0523E52370020522C39441
:1015280014E522940040097522007523001216372D
:101538001217EE0525E52570020524C394E8E52475
:101548009403400B7524007525001215DFD209E5B8
:061558002D6003121915BD
:10155E00D007D006D005D004D003D002D001D000E1
:0B156E00D0D0D082D083D0F0D0E0328B
:03002300021903BC
:06190300309802C2983288
:10189800EF1FAC0670011E4C600A7D027CEFDCFE77
:0418A800DDFC80ECF7
:0118AC002219
:101684000909000A0A0A0A0A0A0A0A0C123F065B36
:0C1694004F666D7D077F6F00400108016C
:0918E200AE0574092FF8A60622D8
:10157900E4F580EF14B40800505490159175F00308
:10158900A4C58325F0C583730215A90215AD0215FB
:10159900B10215B50215B90215C10215C90215D155
:1015A900D2A4800ED2A48012D2A48016D2A4801A0A
:1015B900C2A4D2A3D2A28016C2A4D2A3C2A2800E70
:1015C900C2A4C2A3D2A28006C2A4C2A3C2A2741298
:0615D9002DF8E6F580226A
:1017EE0074092508F8E6FD7C00AF08121579050886
:0A17FE00E508C394094003750801D3
:0118080022BD
:05190900E4AF72F5726D
:01190E0022B6
:10188200E4FF20B1010F20B0027F0220B2027F03E9
:0518920020B3027F04F9
:01189700222E
:101637008570711218828F70E571B40107E57070BB
:1016470003757201E571B40207E5707003757202E4
:10165700E571B40307E5707003757203E571B404AF
:0816670007E5707003757204C1
:01166F002258
:101854005389F0438901758A66758CFCC28DD28CDC
:07186400D2A9D2AFC2B922E4
:101771008F548C558D561218EB7FA01216FC12183F
:10178100CCAF541216FC1218CCAF561216FC12181C
:04179100CC0218FC72
:0216A1008F1E9A
:1016A3001218EB7FA01216FC1218CCAF1E1216FCF8
:1016B3001218CC1218EB7FA11216FC1218CC1217B9
:0D16C300B38F1F7F011218D81218FCAF1F43
:0116D00022F7
:0918EB00D2A0D2A1C2A0C2A12228
:0718FC00C2A0D2A1D2A0227C
:0216FC00AD0738
:1016FE00E4FB74807E00A803088006CEA2E713CE1A
:10170E0013D8F8FFEDF582EF558224FF92A0D2A1F7
:06171E00C2A10BBB08DCB8
:0117240022A2
:1017B300E4FFD2A0FED2A130A00D7480A806088059
:0D17C30002C313D8FC4207C2A10EBE08E805
:0117D00022F6
:0A18D800EF24FF92A0D2A1C2A122CA
:0B18CC00D2A0D2A1A2A0E433FFC2A171
:0118D70022EE
:05190F00007FF7DFFE80
:0119140022B0
:03191500B2A52256
:0D18BF001218097FCC1218237F4402182351
:1016D1001218097FCC1218237FBE1218231217D1BA
:1016E1008F541217D1EFFEE554FFFDAC06EC120941
:0B16F100ABE4FBFA79807841020909A4
:10180900D2B7C2B77FF7DFFED2B77F20DFFEA2B71C
:09181900E433FE7FF7DFFEAF06A9
:0118220022A3
:1018AD00C2B77E04DEFEEF24FF92B77E18DEFED2B5
:0118BD00B773
:0118BE002207
:10183C00C2B77F02DFFED2B77F02DFFEA2B7E4336E
:07184C00FE7F18DFFEAF066E
:011853002272
:02182300AD070F
:10182500E4FC7401A804088002C333D8FC5DFF12F0
:0618350018AD0CBC08EC2C
:01183B00228A
:1017D100E4FDFC12183CEF600D7401A804088002BE
:0C17E100C333D8FC42050CBC08E9AF057E
:0117ED0022D9
:10186B0075985053877F53890F438920758BFD756E
:07187B008DFDC2ABD28E22ED
:0818F4008F993099FDC2992281
:10174C008B548A558956AB54AA55A956120CFF6076
:10175C00130556E5567002055514F9120CFFFF12CD
:05176C0018F480E222E8
:10080000EC4D6011E8497017ED33EC3304600DE4F2
:10081000FCFFFEFD22E933E8330470F8020A5012AF
:100820000A1B58046009E4CC2481500628500902B0
:100830000A5A284003020A57C0E0EB4A7044B980C4
:1008400006D0E0FB020A46EF4E701CBD8008EBFFAD
:10085000EAFEE9FD80EBE98DF0A4FEE5F00208E98F
:10086000E9CDF9EAFEEBFFEF89F0A4FCE5F0CE89D3
:10087000F0A42EFFE435F0CD89F0A42DFEE435F090
:100880008067EF4E7005BD80D780C3EF8BF0A4ACBE
:10089000F0EE8BF0A42CFCE435F0F8EF8AF0A42CF9
:1008A000E5F038FCE433CB8DF0A42CFCE5F03BF80C
:1008B000EE8AF0A42CFCE5F038F8E433CF89F0A4FC
:1008C0002CFCE5F038CF3400CE89F0A42FFFE5F002
:1008D0003EFEE433C98DF0A42EFEE5F039CD8AF05A
:1008E000A42FFFE5F03EFEE43DFD33D0E0FB5007D2
:1008F0000BBB000F020A5AEC2CFCEF33FFEE33FE69
:06090000ED33FD020A3296
:10090600020A5AEC5D046005E859047003020A50B5
:10091600120A1B580460F6EC4860F2EC7004FDFE07
:10092600FF22C860DB2481C85009C39860025006C4
:10093600020A579850CAF582E9294B4A7005AB82DC
:10094600020A4675F0007C1A7880C3EF9BEE9AED9A
:1009560099400DC3EF9BFFEE9AFEED99FDE842F03C
:10096600DC23ACF0D0E0FFD0E0FED0E0FDAB82208F
:10097600E7101BEB60BAEC2CFCEF33FFEE33FEED19
:1009860033FD020A32E803F830E705C0F075F000DF
:10099600EF2FFFEE33FEED33FD40B830E7C280AAFD
:1009A60075F020800E75F010800575F0087D007ECC
:1009B600007F003392D530D503120D8DEC334010F5
:1009C600EF33FFEE33FEED33FDEC33FCD5F0ED22D5
:0E09D600E5F0247EA2D513CC92E7CDCEFF2211
:1009E400EDD2E7CD33EC3392D524814006E4FFFE0B
:1009F400FDFC22FCE4CFCECDCC24E0501174FF806A
:100A0400EDC3CC13CCCD13CDCE13CECF13CF047006
:070A1400F030D5DE020D8D6C
:100E2600E56B2457F8E6056B2278543007027857AD
:100E3600E475F001120D9B020CFF2000EB7F2ED211
:100E4600008018EF540F2490D43440D4FF30040BA4
:100E5600EF24BFB41A0050032461FFE56C6002154D
:100E66006C056FE56F7002056E30070D7854E475FA
:100E7600F001120D9BEF020D450217257403D207F0
:100E86008003E4C207F56B8B548A558956E4F56CEA
:100E9600F56EF56FE56C60077F20120E6180F575C3
:100EA6006DFFC201C200C202C203C205C206C20869
:100EB600120E2FFF700D3007057F00120E72AF6FF6
:100EC600AE6E22B4255FC2D5C204120E2FFF24D007
:100ED600B40A00501A75F00A786C30D50508B6FFCA
:100EE6000106C6A426F620D5047002D20380D924B2
:100EF600CFB41A00EF5004C2E5D20402115FD2014A
:100F060080C6D20080C0D20280BCD2D580BAD205BB
:100F160080B47F20120E612002077401B56C004078
:100F2600F1120E26FF120E61020E9AD208D2068028
:100F360095120E26FB120E26FA120E26F94A4B7051
:100F46000679567A127BFF20022EE56C602A7E0017
:100F56008E82758300120D1860060EEE656D70F0B8
:100F6600C2D5EBC0E0EAC0E0E9C0E0EE1211BFD0A6
:100F7600E0F9D0E0FAD0E0FB120CFFFF60AAEBC06C
:100F8600E0EAC0E0E9C0E0120E61D0E02401F9D049
:100F9600E03400FAD0E0FBE56D0460DCD56DD98065
:100FA60087D20280A21211A260F7E56D70010412C9
:100FB6000A65A96D600DE56D600914F56D1212499B
:100FC600EF60F3EA30E702F404C3995077EAF425B8
:100FD6006D0430E701E404F56D800D1211A260C1C5
:100FE600EA056D256D120A65EA786AF630E701E4CE
:100FF600256D04D56D04200501141211BFE4C0E06F
:10100600121249786AE6601320E70714F6120E49B1
:10101600802204F6D0E014C0E07F00120E49E56D90
:101026006007120E40156D800B300503120E40D07E
:10103600E0020E9AD0E00480C51211A260A0E56D10
:1010460004120A65786AEAF6E56D20050260010475
:0510560024041211BF8B
:10105B0074FF04C0E0121249120E49E56D2005021F
:10106B006003120E40D0E0B56DE87F45120E537849
:10107B006AE67F2B30E7047F2DF404C0E0120E618B
:10108B00D0E075F00A84C0F0120E4AD0E0120E4A7E
:10109B00020E9A791080027908C206C2088008D223
:1010AB00D5790A8004790AC2D5E56D047002F56D15
:1010BB00E4FAFDFEFF120E26FC7B08200113120E34
:1010CB0026FD7B1030000A120E26FE120E26FF7B29
:1010DB0020EC3382D592D55013C3E43000069FFF2A
:1010EB00E49EFEE42001039DFDE49CFCE4CBF8C2EE
:1010FB0001EC700CCFCECDCCE824F8F870F3801750
:10110B00C3EF33FFEE33FEED33FDEC33FCEB33FB80
:10111B00994002FB0FD8E9EB300105F8D0E0C44849
:10112B00B201C0E00AEC4D4E4F78207B0070C2EA52
:10113B00B56D0040BCC0E01211C1D0F0D0E0200171
:10114B0004C4C0E0C4B201C0F0120E4AD0F0D5F016
:10115B00EB020E9A120DAB0F3753109E580F084C23
:10116B000F044210A24F10AA4410AA490F1D43109E
:10117B00B0550FE146103F450FAB471276500F0CA1
:10118B002D0F102E0F332B0F14230F3120125F2A2C
:10119B000ECC4800000F2BE56DB4FF03756D0612E6
:1011AB000E26FC120E26FD120E26FE120E26FF78C0
:1011BB0063020A94790AA2D5200314300509B910E9
:1011CB00020404B9080104A2D52006025001042030
:1011DB0002689202B56C005034C0E07F20300319D6
:1011EB007F30A20272067205500F121218C202C291
:1011FB0006C205C2087F30800F300503E9C0E0123C
:10120B000E61300503D0E0F9D0E0B56CCC3005179A
:10121B007F30B9100C120E617F583004077F788035
:10122B0003B90803120E613002057F2D020E617F98
:10123B00202008F87F2B2006F322920280CF7F001C
:10124B00B4070050052463F8E6FF22286E756C6C1A
:10125B002900D201120E263001F8C201786C30D56C
:10126B000108F6020ECC2D50434958120E262403CA
:10127B00B405004001E490127193120E52743A12AD
:0A128B000E52D203756C0402109E8F
:100A1B00E9D2E7C933E833F892D5EDD2E7CD33EC21
:070A2B0033FC5002B2D5229A
:100A3200EC30E7100FBF000C0EBE00080DBD000425
:100A42000BEB6014A2D5EB13FCED92E7FD2274FFD1
:100A5200FCFDFEFF22E480F8A2D574FF13FC7D802A
:030A6200E480EF3E
:100A6500F920E72824F950037907E4F42402FB1858
:100A7500DBFDE624FB5014E9600DE4F618E604F608
:0F0A8500B40A08E4F6D9F57401F60A22C2D522A4
:100A9400ED33EC3392D5FA602AB4FF33EDC2E77B31
:100AA400FF60067A0A79B9E4227A0A79C220D50469
:100AB4007A0A79BD224E614E002B494E46002D49DB
:100AC4004E4600E47A08F608DAFC7B00740722E854
:100AD400C0E0ECC0E0EDC0E0EEC0E0EFC0E0EA75DD
:100AE400F010A4CAABF075F04DA42BFBE435F0FC78
:100AF400EA2410FAEB34C5FBEC34D9FCEDC2E7FF71
:100B040075F056A4F42411C5F0F434C58FF0A42A6A
:100B1400E5F03BE43CF620E714120CBFD0E0FFD034
:100B2400E0FED0E0FDD0E0FC1209098014F40412C8
:100B34000CBFD0E0FFD0E0FED0E0FDD0E0FC120816
:100B440000D0E0F8E6FAEDD2E7CD33EC332482FBB3
:100B5400E4C3CF33CFCE33CECD33CD33DBF37B07FA
:100B640075F00A846004F6081B0AE5F0F6088FF0B5
:100B7400740AA4FFACF08EF0740AA42CFEACF050FE
:100B8400010C8DF0740AA42CFDE435F0F608DBDECC
:030B9400740722C1
:100B9700020A50E86480F8E933E83360110460F032
:100BA700ED33EC337009E8FCE9FDEAFEEBFF2204C4
:100BB70060DED3EB9FEA9EE99DE8C2E78CF0C2F7BF
:100BC70095F0400CE8CCF8E9CDF9EACEFAEBCFFB8B
:100BD700120A1B85D0F05804700320D5B3E80470BF
:100BE700075002B2D5020A5A92D5EC0460F7E4CC5A
:100BF700C0E0C398F8603B94186008400DD0E0FB54
:100C0700020A32E4FBFAC9FC8028E830E406E4C9AA
:100C1700FBE4CAFCE830E305E4C9CACBFCE85407A7
:100C27006010F8C3E913F9EA13FAEB13FBEC13FCB2
:100C3700D8F130F52FC3E49CFCEF9BFFEE9AFEED55
:100C470099FDD0E0FBEF4E4D4C701222DB03020AF8
:100C570057EC2CFCEF33FFEE33FEED33FDED30E7C1
:100C6700EB020A32EF2BFFEE3AFEED39FDD0E0FB47
:100C770050130BBB0003020A5AED13FDEE13FEEFF0
:080C870013FFEC13FC020A321A
:100C8F003F8000004120000042C80000447A00006D
:100C9F00461C400047C35000497424004B189680EF
:100CAF004CBEBC205A0E1BCA6753C21C749DC5AEE6
:100CBF00FB60065407601C2323120CEDEB543860C5
:100CCF0009120CD9120CE8120800ECF8EDF9EEFA43
:100CDF00EFCB22EB120CE880F1543803241C900C5C
:100CEF008FFE93FC0EEE93FD0EEE930ECE93FF222E
:0300000002146F78
:0C146F00787FE4F6D8FD7581720214B697
:100CFF00BB010689828A83E0225002E722BBFE02F3
:090D0F00E32289828A83E4932225
:100D1800BB010CE58229F582E5833AF583E0225090
:100D280006E92582F8E622BBFE06E92582F8E222DA
:0D0D3800E58229F582E5833AF583E49322F4
:100D4500BB010689828A83F0225002F722BBFE018D
:020D5500F32287
:100D5700C2D5EC30E709B2D5E4C39DFDE49CFCEEB7
:100D670030E715B2D5E4C39FFFE49EFE120DD1C351
:100D7700E49DFDE49CFC8003120DD130D507C3E44C
:060D87009FFFE49EFE2226
:0E0D8D00C3E49FFFE49EFEE49DFDE49CFC2277
:100D9B00FAE6FB0808E6F925F0F618E6CA3AF62259
:100DAB00D083D082F8E4937012740193700DA3A3D7
:100DBB0093F8740193F5828883E4737402936860EB
:060DCB00EFA3A3A380DFEB
:10172500EFB40A07740D121730740A309811A8998E
:10173500B8130CC2983098FDA899C298B811F63024
:0717450099FDC299F59922FC
:10147B00021295E493A3F8E493A34003F68001F2E0
:10148B0008DFF48029E493A3F85407240CC8C33372
:10149B00C4540F4420C8834004F456800146F6DF41
:1014AB00E4800B0102040810204080901670E47E4B
:1014BB00019360BCA3FF543F30E509541FFEE49336
:1014CB00A360010ECF54C025E060A840B8E493A3FD
:1014DB00FAE493A3F8E493A3C8C582C8CAC583CA28
:1014EB00F0A3C8C582C8CAC583CADFE9DEE780BEE0
:0116A0000049
:100DD100BC000BBE0029EF8DF084FFADF022E4CC06
:100DE100F875F008EF2FFFEE33FEEC33FCEE9DECCF
:100DF100984005FCEE9DFE0FD5F0E9E4CEFD22ED15
:100E0100F8F5F0EE8420D21CFEADF075F008EF2F5E
:100E1100FFED33FD4007985006D5F0F222C398FD4F
:050E21000FD5F0EA22EC
:00000001FF
